:020000040800F2
:10000000581B0020810100088901000841150008E3
:1000100000000000000000000000000000000000E0
:100020000000000000000000000000008D0100083A
:1000300000000000000000008F010008910100088E
:100040009301000893010008930100089301000840
:100050009301000893010008930100089301000830
:100060009301000893010008930100089301000820
:100070001D13000893010008930100089301000874
:100080009301000879270008000000009301000890
:10009000F1250008292700085127000893010008CE
:1000A000930100089301000893010008112A000839
:1000B0009301000800000000930100080000000008
:1000C00000F002F800F030F80CA030C8083824180E
:1000D0002D18A246671EAB4654465D46AC4201D180
:1000E00000F022F87E460F3E0FCCB6460126334282
:1000F00000D0FB1AA246AB463343184778F1000004
:1001000098F100000023002400250026103A01D3B6
:1001100078C1FBD8520700D330C100D50B607047BF
:100120001FB51FBD10B510BD01F070F81146FFF7E7
:10013000F7FF09F0E5F801F088F803B4FFF7F2FFE4
:1001400003BC01F0B9F8000070B505460C46164630
:1001500002E00FCC0FC5103E102EFAD2082E02D3AB
:1001600003CC03C5083E042E07D301CC01C5361FBE
:1001700003E021782970641C6D1C761EF9D270BDD5
:100180000748804707480047FEE7FEE7FEE7FEE72F
:10019000FEE7FEE704480549054A064B70470000A4
:1001A00059240008C100000858090020581B0020ED
:1001B000580B0020580B0020F8B5042A2CD38307D5
:1001C00012D00B78491C0370401C521E83070BD0C1
:1001D0000B78491C0370401C521E830704D00B7817
:1001E000491C0370401C521E8B079B0F05D0C91A77
:1001F000DF002023DE1B08C90AE0FFF7A5FFF8BDDA
:100200001D4608C9FD401C46B4402C4310C0121FB7
:10021000042AF5D2F308C91A521EF0D40B78491CEF
:100220000370401C521EEAD40B78491C0370401C1A
:10023000012AE4D409780170F8BD002203098B4239
:100240002CD3030A8B4211D300239C464EE0034675
:100250000B433CD4002243088B4231D303098B4229
:100260001CD3030A8B4201D394463FE0C3098B425F
:1002700001D3CB01C01A524183098B4201D38B01B8
:10028000C01A524143098B4201D34B01C01A52415B
:1002900003098B4201D30B01C01A5241C3088B42A0
:1002A00001D3CB00C01A524183088B4201D38B008B
:1002B000C01A524143088B4201D34B00C01A52412D
:1002C000411A00D201465241104670475DE0CA0F04
:1002D00000D04942031000D34042534000229C46C4
:1002E00003098B422DD3030A8B4212D3FC228901CE
:1002F00012BA030A8B420CD3890192118B4208D3A4
:10030000890192118B4204D389013AD0921100E005
:100310008909C3098B4201D3CB01C01A5241830919
:100320008B4201D38B01C01A524143098B4201D346
:100330004B01C01A524103098B4201D30B01C01A71
:100340005241C3088B4201D3CB00C01A52418308EB
:100350008B4201D38B00C01A5241D9D243088B4241
:1003600001D34B00C01A5241411A00D201466346E4
:1003700052415B10104601D34042002B00D5494248
:10038000704763465B1000D3404201B50020C04671
:10039000C04602BD70477047704700000246C80F54
:1003A000C00781434B0030B54B405B009B0D20D014
:1003B0001923DB06C91801231B05994220DB0324FE
:1003C000A40704251346AB400BD3002B04D1EB0646
:1003D00013409B00E34204D4012464070023121954
:1003E0005941FF231B0599420BD2C9000143500F0D
:1003F00009E0CB0204D501430803024305D00548B8
:1004000030BDFF21C905084330BD08460721090555
:10041000884330BD0000C07FF0B50C46871A9C4170
:100420000D46861A9D4103D2C01BA141D2196341DA
:100430000D0D1F0DC94EEC1BAE435CD07F057F0D2B
:100440000026002F51D02D05AC46A943DD02012323
:10045000ED0A1B051D4320231B1B24D41746E74030
:10046000381871412F46E740CC199D402818314675
:1004700061410C0D27D161449A4013D50023401CE3
:10048000594152000ED14008400001224B00520554
:10049000D34207D305204007C14201D5B04900E04F
:1004A000B0493046F0BD6B00002A00D001229A18F6
:1004B0001F23203C1B1B01D5002302E0E540281828
:1004C00071410C0DD7D0012424050919C407CD07AB
:1004D00040084908E40F28436144002CD5D000248B
:1004E000401C61419A40D0D1CDE76A05520DD9D167
:1004F000C90FC907D5E79C4D4E00002801D0012443
:1005000000E0002434195F00002A01D0012600E039
:100510000026BE19954FAC420CD8AE420AD8B44260
:1005200006D001256D05EC42BCD010461946F0BD41
:100530009942FCD000203946F0BDF0B51FB40C46FE
:100540000F46811A9F412546861A9D4106D20125F4
:10055000ED076F40401ABC4152187B41210D1E0D22
:100560008D1BAC467D4D8D437ED075056D0D7CD0C9
:100570000D05AE46AC431B031B0B794D52429D410A
:10058000202366469B1B14D31746F74038180026D5
:100590000090744160462F460741E41900989D4041
:1005A0002818664116D4714671189A4025D5012342
:1005B00020E093182A466A415200002B00D0521CBA
:1005C0001E23203E9B1B002B61DD3541EE172818B2
:1005D0006641E8D5001876415B1C9A4000D3401C68
:1005E0004B05F3181524E34010D3002B52D071466D
:1005F0007118D30FC01802D3491C05B0F0BD0123F8
:10060000DB079A42F9D140084000F6E70122520583
:10061000B21801D1002853D00123CC0ADB02994340
:10062000891E002A08D1020C03D0020C00041039E4
:1006300002E00246002020390023550B05D11202AA
:100640000823550B01D152010D23550C01D1120184
:100650001B1DD50C01D192009B1C150D01D1520020
:100660005B1C2025EE1A01E02CE022E00546F54057
:1006700015439840CA1AE10769181305C918002ADA
:10068000BBDA032040070818C10FC9070FE0714605
:100690006118B2E7F10740080843711071444A003D
:1006A0000CD001235B059A42A7D2C90FC9070020CD
:1006B000A3E74905490D26D1002001E00028F4D127
:1006C00000219AE7284D6600002801D0012100E0B2
:1006D000002171185F00002A01D0012600E00026E9
:1006E000BE19224FA94210D8AE420ED8B14208D04E
:1006F00001256D05E94206D01946A8024140104681
:100700007BE79C4201D0214677E70020394674E719
:1007100010B50C465C4005D50124E4076340FFF7A3
:100720000CFF10BDFFF778FE10BD30B40C465C40E6
:1007300004D50124E407634030BC6DE630BCFCE620
:1007400070B50124E40761400D465D4002D4FFF717
:1007500063FE70BD6340FFF7F0FE70BDFF07000051
:100760000000F0FF0000F07F0000E0FF0000F87FD5
:10077000F0B5F94D0C091E092C402E402F468BB0C8
:10078000A7437DD0B543FCD0002E7AD0002CFCD0FE
:100790000D465D40ED0F2543AC1BFF25AD046419EC
:1007A0000894C502440DC9022143500DDC020443E4
:1007B0000120C00701430443D2020191200C110C17
:1007C00000958C46010423468B430A916146090437
:1007D000E24D8A430991010A7D444919803909781B
:1007E00005464D4301266D18F605751B6943C90C76
:1007F000640B891C4C436418B5012C1B250C2E047A
:10080000B4434C434D43210C691889090591009D5F
:10081000E90701D00121C90704912C460199670815
:10082000CD072F434C08059DE10B4D432D0C294668
:100830006646754302950D4645432E46029D7D1B37
:10084000B44100950D465D4301942C0C2F040D46D8
:100850005543AE462D0C3D43029503947546049CCA
:100860002D04641B049406D2029C039D641C002684
:1008700075410395029401AC70CC009F7D1B01E093
:100880003EE162E1B44109040095079101940599A4
:10089000A4086143090C0C464443650BE7040C466D
:1008A00066467443A646640B3C4303950294744623
:1008B000049DE4042C1B049406D2029C039D641C3A
:1008C000002675410395029401AC70CC009F7D1BFE
:1008D000B44101940C465C430095650FE7000C465B
:1008E0005443A646640F3C43039502947446049D0A
:1008F000E4002C1B049406D2029C039D641C002679
:1009000075410395029401AC70CC009F7D1BB441EE
:10091000AE09AF06049DC900AD092F43049DA4068E
:10092000AD060495079D344369180791059DE10BB9
:100930004D432D0C29466646754302950D464543A9
:100940002E46029D7D1BB44100950D465D430194EA
:100950002C0C2F040D465543AE462D0C3D430295FD
:1009600003947546049C2D04641B049406D2029CD7
:10097000039D641C002675410395029401AC70CC64
:10098000009F7D1BB44101948C050694079C890A45
:10099000611800950791019C0599A4086143090C11
:1009A0000D464543680BEF040D46644665436C0BEA
:1009B0003C43049FED047D1BAC4602D20025641C21
:1009C0006841009E019D371B8541084658430195AB
:1009D0000C46460FC5005443600F28436546E400AB
:1009E0002C1B02D20025401C6E41019D3F1AB541CF
:1009F0002846BD09800628438446A009BF064E024A
:100A00000699A40676180743079D002068410A99B5
:100A1000079019430020099B00906046FF1913437B
:100A20004041E20F64003A43A4460446D71A8C4181
:100A3000A04203D90120009020463A46C70F9418DF
:100A400040416246D20F2243644664000494009CF5
:100A5000BE466400D71AA446044602978C417746E6
:100A6000002F01D1A04204D96046401C8446029A5E
:100A70002046C40FA64694184041049A0546D20F5A
:100A8000224364466400D31A8D417146002901D186
:100A9000A84202D928461A46641C104301220028A5
:100AA00000D0164361020020079B891904465C416F
:100AB0000223002C02DB491813466441089DCE0A2C
:100AC0002D145D194B056705E10A2C050D190899D0
:100AD0003E43C9076940002B08D0934006D300224B
:100AE000761C5141002B01D1760876001C4A002D5E
:100AF00043DB154241D0AA433FD030460BB0F0BD96
:100B000006180D464D41174C7642AC411AD3951844
:100B10001C465C41134A6D42A24113D30122520587
:100B20004C00D4420AD15C00D4420BD04B4002D5D9
:100B300092021143E2E749004908DFE75940C90F33
:100B4000C90718E000200849D8E7054801420DD13F
:100B50000342F7D0F2E700000000FF07D7E90000EA
:100B60000000F07F0000E0FF0000F87F11485940CE
:100B70000143C01241400020C0E70123089A9B06B0
:100B80009A4205DC032252078918C90FC907B5E745
:100B9000052252078918074A1143D2125140ADE786
:100BA00070B515461C4602460B4628462146FFF7FF
:100BB000DFFD70BDFFFFFF7FF0B58B4C0F092546B1
:100BC00089B0BD437BD01D092646AE43FAD00E4600
:100BD0005E402740F60F3E43254071D0240121425C
:100BE000FBD0FF24AD19A4042D1B039501252D0571
:100BF000DB02DB0AC9022B43C90A29431E01090192
:100C0000040F130F050121431701880B8203914341
:100C10002D098C46A90B1E438A039543B30B9A03F7
:100C200096433F09BA0B9403A74302962E467E4390
:100C30000497B6464E19D7190C46019654430597AA
:100C40007E43371B7646BF1B3601B646BE0B3619B0
:100C500000967646BC043719009C01D3641C0094AE
:100C60006400002F01D001263443029E049F754387
:100C700066467E430496760034196E00341900945B
:100C8000029C019E1C196643751BAE460694654680
:100C90004519059C05956C43594375460891691A99
:100CA0000191049E01465143A41B0491611A009CCA
:100CB0000791E10605D061090122114302E072E0CB
:100CC0006EE06109089D00272C0A2D066918049D15
:100CD0007C412A0A2D066918019D6241AC0DAD02C6
:100CE0006D185441079A910D920255196141029A6B
:100CF000644658435443069B059A5A43121A131BE1
:100D00009A0E9B015B187A41010B0005C3185141F3
:100D1000220A200644195A419A4200D2491C012055
:100D20004002814203D315230226F64302E0142336
:100D30000326F6432020C51AA9401746AF40DA40E3
:100D40000A4320460399D84009147318190551180D
:100D5000039A3843D2075140AC4009D00122944055
:100D600006D30022401C5141002C01D14008400014
:100D70001E4A934212D3012203989206904207DB47
:100D80000520400709181A480143C012414004E0F9
:100D9000032040070818C10FC907002009B0F0BDA3
:100DA0000020F107FAE705180C464C4111486D4246
:100DB000A04115D394181A465A410E4864429041F6
:100DC0000ED301204A004005824209D35A008242D4
:100DD00006D35940C90F084AC90700201143DDE76F
:100DE00000200649DAE700000000FF07FE070000C8
:100DF000FFFFFF7F0000E0FF0000F07F0000F87FB2
:100E00000121C9050123411842001B06D3185B0EBE
:100E10000AD0C1100722D206891840075242D14297
:100E200001D5520089187047090208D50146002AE9
:100E300003D0C10FC9070020704710467047420217
:100E400002D0002002497047072109050143F4E759
:100E50000000F87FF0B5FF252D04C609C209FF2761
:100E600004462E400137CB093E4348402A402B40E0
:100E70000746002A6BD0002B69D0AA4267D0AB424C
:100E800065D0002800DA32460125ED0529432C43C0
:100E900009022002090AD21A4B0C7F24E31A434CA0
:100EA000000A7C44E35C7D242404121914145B00C2
:100EB000A218884201D3521C00E0400049420C466F
:100EC0005C4324115C43DB016415E318040A5C43B2
:100ED000C502200D0C4644436419250A5D432303D3
:100EE000EC0C0D46654300030019EB184C42A3427D
:100EF00001D35B18401CD4052018002B07D05B00E1
:100F0000C91804D3401C002901D1400840003F21EA
:100F100089048A4209D3002A08DC1106090F04D08B
:100F2000032149074018C00FC007F0BD012241004E
:100F3000120689187F2252069142F6D205214907EE
:100F4000C84201D59010F0BDFF20C005F0BD002FB4
:100F500000DA32461648AA4207D2AB4205D219023D
:100F6000090E17D0F80FC007F0BDFF2563002D064E
:100F7000AB42F9D84900A942F6D8AB4201D1A94207
:100F8000F2D0A94201D1002101E061004908D00559
:100F90000843F0BD1102090EFBD0FF200243D0052B
:100FA000F0BD0A460146104654E700008DE30000FC
:100FB0000000C07F0102C21504D00123DB071943E2
:100FC000002A0ADB9E239A1A02D40846D0407047B2
:100FD000FF2241001206914201D900207047C0173C
:100FE000C04370471F22030C02D10F2200041CD003
:100FF000030E01D10002083A030F01D10001121FB4
:10100000830F01D18000921E002801DB4000521E98
:10101000D2055118021251181922904004D3491CCC
:10102000002801D14908490008467047C10FC90787
:1010300000D04042012292071143D3E701218907E2
:10104000D0E710B500F0BAF8006810BD10B504463E
:1010500000F0B4F8046010BDF0B53D4B02460C46FC
:101060001C400020002C63D03A4D8B4366D00029F1
:101070006BDB0B0D1D05A94301252D05294301241B
:10108000FD33E34001D392184941FF3381339C463D
:101090008B02940D0121234389074C4292020027C1
:1010A0001B198C105D1A04D42D1B02D42B4665002D
:1010B000491992185B416408F4D15C1A08D40125DF
:1010C000ED07EE175519744102D42A462346491CF0
:1010D00094185B41012292071D46E61B8D4106D400
:1010E000B61A854103D42B46550034467F1924197E
:1010F0005B415208802AEFD1234300D002233846B7
:101100000A22D04001D3012213438A0510436246CC
:10111000890A12058918002B09D00122D34002D375
:101120000022401C5141002B01D140084000F0BD7D
:101130000B03134307D0C90FC907F0BD08031043C1
:1011400003D1002901DB1046F0BD00202946F0BD87
:101150000000F07F0000F87F10B5FF231B0644005D
:101160009C421DD84C009C421AD80346124A0B439D
:1011700007D4401A02D3EFF3008010BDEFF30080D4
:1011800010BD081A06D2EFF3008001219043C90771
:10119000084302E0EFF30080904380F3008810BD25
:1011A0000D231B041A4204D01146002000F00AF857
:1011B00010BD00F01FF810BD0000009000487047FF
:1011C000F4080020C80212D54803400F002804D0BC
:1011D000C803C043012188407047EFF3008000013D
:1011E000000903210907084380F3008870470020A5
:1011F0007047000010B5024800F02FF810BD000045
:101200000000C07F00487047F40800207546FFF7D3
:10121000F9FFAE46050069465346C008C000854642
:1012200018B020B5FEF7B6FF60BC00274908B646E7
:101230000026C0C5C0C5C0C5C0C5C0C5C0C5C0C5E5
:10124000C0C5403D49008D46704710B50446C046B4
:10125000C0462046FEF771FF10BD10B50C461107C1
:10126000090F092904D00A290AD008290CD104E061
:1012700011460820FFF7A6FF06E0510606D501E05B
:10128000510601D50120C007214610BDD10607D562
:1012900001010909CC084907000E0006044309E0D2
:1012A000410F20024907000A0143200E00061D22BB
:1012B000D14101430846E7E701491820ABBEFEE7EC
:1012C00026000200704770B58C180578401C6B072B
:1012D0005B0F01D10378401C2A1106D10278401C13
:1012E00003E00678401C0E70491C5B1EF9D12B07E9
:1012F00005D40023521E0DD40B70491CFAE7037865
:10130000401CCB1A921C03E01D780D70491C5B1C1D
:10131000521EF9D5A142D8D3002070BD10B5104897
:101320000068C007C00F002819D00E4800780728B1
:1013300007DA0B48403000680A49097849000A4A30
:10134000505208480078401C06490870084600784A
:10135000072801DB00F020FF04200149086010BDD0
:10136000002401403501002012050020014A90624E
:101370005161704700240140002904D08268012394
:101380001A43826003E0826802231A438260704736
:1013900010B504460548844207D10121401500F0EC
:1013A000EFFD0021601500F0EBFD10BD00240140B1
:1013B00030B501460020002200238C680125ED078E
:1013C0002C438C6000BF8C68E30FDB07521C0F249A
:1013D0002403A24201D0002BF5D18C68E40FE4076E
:1013E000002C01D1086C00E0002030BD30B5024671
:1013F00000200023012424060C40002C05D0946812
:1014000001252D06AC43234600E013681C460C4022
:10141000002C01D0012000E0002030BD10B50022DA
:10142000C268084B1A400C7964030B6823438C682C
:101430002343CC6823430C6923434C6923431A4359
:10144000C26010BD03D2FFFF816804221143816096
:10145000704781681022114381607047002101604C
:1014600001718160C160016141617047F0B50A4658
:1014700000210023002400BF3DE001258D402B46C4
:1014800015681D402C469C4234D11579012D02D09F
:101490001579022D16D185684F000326BE40B5434D
:1014A000856055794E00B5408668354385608588EE
:1014B00001268E40B5438580858896798E40B6B2E8
:1014C0003543858005684F000326BE40B54305605F
:1014D00015794E00B540066835430560C5684F0074
:1014E0000326BE40B543C560D5794E00B540C668F9
:1014F0003543C560491C1029BFD3F0BDF0B50023AA
:1015000000244D07EE0E1546B5402B46CD10AE001B
:1015100005462035AD594E07F70E0F26BE40B543A0
:10152000CE10B60007462037BD51CD10AE003D4667
:10153000AD591D432C46CD10AD003E467451F0BD53
:1015400000BFFEE710B5FF200130134908811248A3
:10155000203800680321890488430F492039086036
:1015600008460068090208430B4920390860012039
:10157000400209490881022006F092FAFF2001305A
:10158000054920398861022006F08AFAFF200130DF
:101590000149088110BD00002004004810B5FF205B
:1015A000013012490881114820380068032189045C
:1015B00088430E492039086008460068090208433C
:1015C0000A4920390860012040028861022006F0A3
:1015D00067FAFF200130054920398861022006F0B2
:1015E0005FFAFF2001300149088110BD2004004846
:1015F000F8B5054600240020009019480068032132
:10160000890488431649086000261EE0FF20013047
:10161000134920310881022006F042FAFF200130F0
:101620000F4988616006040E0846008A01214902BC
:101630000840470A0097009F002F01D0601CC4B2E9
:10164000012006F02DFA701CC6B2082EDEDB002D3C
:1016500002D1FFF7A3FF01E0FFF774FF2046F8BDBA
:101660000004004870B504461D4800680321890441
:1016700088431B4908600846006809020843184966
:101680000860FF200130164920310881002524E040
:1016900080202040C011002804D0012040021049C1
:1016A000886104E0012040020D4920310881600674
:1016B000040E022006F0F4F9FF2001300849886189
:1016C000022006F0EDF9FF200130054920310881A4
:1016D000022006F0E5F9681CC5B2082DD8DB70BD04
:1016E0000004004810B511480068032189048843AC
:1016F0000E49086008460068090208430B49086063
:1017000001204002886140108861042006F0C8F979
:1017100001204002054920310881042006F0C0F96B
:10172000FF20013001492031088110BD000400482C
:1017300010B5114800680321890488430E490860E8
:1017400008460068090208430B490860FF20013081
:1017500009492031088140000881042006F0A0F9E1
:10176000FF20013004498861042006F099F9012026
:1017700040020149886110BD00040048F8B500240A
:1017800000271A4800680321890488431749086024
:10179000012040028861012006F082F9FF2001301B
:1017A00012498861012006F07BF91048008A012166
:1017B00049020840460A37460FE0601CC4B2FA2CC2
:1017C00003DDFFF7B5FF0120F8BD0848008A0121BD
:1017D00049020840450A2F4600BF002FEDD1FF20E7
:1017E00001300249203108810020EDE70004004863
:1017F0000148024908607047CCCC0000003000402E
:101800000148024908607047AAAA00000030004061
:10181000014948607047000000300040014988607D
:101820007047000000300040014908607047000028
:101830000030004000B587B000F038F81948FFF7D5
:10184000A7FD0121480200F08BFB01A8FFF706FE6F
:10185000082001900120694608720020039005903D
:10186000069001A90F48FFF7D9FD04200D494860F3
:101870000C20012181400C4A116000BF052100F0BD
:1018800013FB0848FFF794FD01210648FFF774FD9C
:1018900000BF01210348FFF7A9FD0028F9D007B0D8
:1018A00000BD00000024014000E100E01CB5012162
:1018B000480400F035FB26200090032168460171A2
:1018C0000021C17169460920C006FFF7CFFD1CBD8C
:1018D00010B50420C04300F0ADFD0220044908709B
:1018E000084600787D21C90048430249088010BDA0
:1018F00071000020720000201CB50121880400F056
:101900000FFB0121480400F00BFB41200090012156
:101910006846017100218171032141710021C1716B
:1019200069460920C006FFF7A1FD102000900021A4
:10193000684601718171032141710121C1716946BC
:101940000920C006FFF792FD072040030090002108
:10195000684601718171032141710021C17169469D
:101960000E48FFF783FD0E48009001216846017183
:1019700000218171032141710021C171694607482D
:10198000FFF774FD01200749088100030349203156
:1019900008814020034908811CBD00000004004864
:1019A00038100000200000481CB503200002009001
:1019B000012168460171032141710021C17169460D
:1019C0000548FFF753FDFF2001300349203108810E
:1019D000400008811CBD00000004004810B5012033
:1019E00000F0BAFB00BF412000F092FB0028FAD0C3
:1019F0000748FFF719FF0320FFF70AFFFF203A30DF
:101A0000FFF70CFFFFF7FCFEFFF7F2FE10BD000032
:101A10005555000010B5FFF7C7FF10BD00B589B0E0
:101A2000002203210920C006FFF768FD01214804B8
:101A300000F076FA08200790022108A8017003211F
:101A40004170002181700121C17007A90920C006E1
:101A5000FFF70CFD0121080400F082FA19480590F7
:101A60001F216846018200210183418204A9164892
:101A700000F090FF042168468180032181810A21C2
:101A8000C180002141810121018101A90E4800F09E
:101A9000C6FE142168460170012181700021417049
:101AA00000F0CAF90521084800F097FE0122042140
:101AB000054800F0ECFE0121034800F091FE09B05A
:101AC00000BD0000FFFF00000040014000B58BB0EA
:101AD0000121480400F024FA40200990022108A8BE
:101AE00001720321417200218172C17209A909208A
:101AF000C006FFF7BBFC052206210920C006FFF740
:101B0000FDFC0121480400F02BFA15216846017004
:101B1000032141700121817000F08EF91748079070
:101B200003216846018300210184418306A91448EA
:101B300000F030FF0121124800F03EFE60216846AF
:101B400081800121C1800021018101824182FF2128
:101B5000013181820021C1820020039001A908483F
:101B600000F0A0FE01221146054800F090FE012180
:101B7000034800F02FFE0BB000BD0000AF2A0000AC
:101B80000044014000B58BB00121480400F0C8F9C1
:101B900080200990022108A80172032141720021CE
:101BA0008172C17209A90920C006FFF75FFC0522F6
:101BB00007210920C006FFF7A1FC0121880400F0DD
:101BC000CFF9162168460170022141700121817010
:101BD00000F032F91748079003216846018300217D
:101BE0000184418306A9144800F0D4FE0121124863
:101BF00000F0E2FD6021684681800121C180002162
:101C0000018101824182FF21013181820021C18253
:101C10000020039001A9084800F044FE012211466B
:101C2000054800F034FE0121034800F0D3FD0BB05D
:101C300000BD00009F8C0000004801401FB501213D
:101C4000102000F07DF911216846017004214170D7
:101C50000121817000F0F0F80D4802900F216846D4
:101C6000818001A90B4800F095FE0021094800F091
:101C700063FE0121074800F09FFD0122114605483F
:101C800000F005FE0121034800F0AAFD1FBD000081
:101C9000E70300000010004010B58AB0044601219F
:101CA000480400F03DF90121880300F059F90122B0
:101CB0000921C806FFF722FC01220A210920C006DB
:101CC000FFF71CFC032040020890022108A80171C4
:101CD0000321417100218171C17108A90920C00649
:101CE000FFF7C4FB01940120000302900020039041
:101CF0000320400204900C2005900020069001A9CA
:101D00000D4800F009FF1B2168460177012141774A
:101D1000817707A800F090F801220849064800F0F2
:101D2000DAFE0749044800F0BFFE0121024800F036
:101D3000C6FE0AB010BD00000038014005010500D4
:101D40000603070070B506460C4615460AE0304605
:101D5000721C96B200F009F82070641C681E85B2EF
:101D600000F0F2FA002DF2D170BD70B504460026E5
:101D7000FFF7B8FC2546E117090E49190912490079
:101D8000A031C8B2FFF76EFCFFF7F8FCE117090EAF
:101D9000491909120902611AC8B2FFF763FCFFF77B
:101DA000EDFCFFF79FFCA120FFF75CFCFFF7E6FCD2
:101DB0000020FFF71DFC0646FFF7BAFC304670BD59
:101DC00070B505460C46164608E02178284600F016
:101DD0000BF8681C85B2641C00F0B6FA3046711E20
:101DE0008EB20028F1D170BD70B504460E46FFF7E3
:101DF00079FC2546E117090E491909124900A0315D
:101E0000C8B2FFF72FFCFFF7B9FCE117090E49191B
:101E100009120902611AC8B2FFF724FCFFF7AEFCF1
:101E20003046FFF71FFCFFF7A9FCFFF781FC0A20F3
:101E300005F00EFE70BD000000218278002A27D038
:101E4000184A03231B02D21803789B109B00D15819
:101E500002789207D30EFF229A400B46934319460D
:101E600042789207120E03789B07DB0E9A401143CB
:101E70000C4A03231B02D21803789B109B00D150FD
:101E80000278D306DB0E01229A40064B1A6007E067
:101E90000278D306DB0E01229A40024B80331A608F
:101EA0007047000000E100E010B5002819DA1A4A76
:101EB00003071B0F083B9B089B00D2588307DC0ECF
:101EC000FF23A3409A438B071B0E8407E40EA34015
:101ED0001A43114B0407240F083CA408A4001A510C
:101EE00018E00E4A03231B02D21883089B00D25825
:101EF0008307DC0EFF23A3409A438B071B0E840746
:101F0000E40EA3401A43054B032424021B19840842
:101F1000A4001A5110BD00001CED00E000E100E03B
:101F2000002905D0054A52690243044B5A6104E076
:101F3000024A52698243014B5A61704700100240C5
:101F4000002905D0054AD2690243044BDA6104E056
:101F5000024AD2698243014BDA61704700100240A5
:101F6000002905D0054A92690243044B9A6104E0B6
:101F7000024A92698243014B9A6170470010024005
:101F8000002905D0054AD2680243044BDA6004E018
:101F9000024AD2688243014BDA6070470010024067
:101FA000FEB5044600250026002001900090002781
:101FB000504840680C2108400546002D04D0042DEF
:101FC00005D0082D28D105E04B48206027E04B487C
:101FD000206024E0474840680F21890408400646F5
:101FE000444840680121090408400190B00C861C57
:101FF0000198002803D14248704320600BE03D481F
:10200000C06A0007000F401C00903C480099FEF792
:1020100014F97043206002E03748206000BF00BF21
:1020200034484068F021084005462D093548475D91
:102030002068F84060602F48406807210902084086
:1020400005462D0A2F48475D6068F840A060294882
:10205000006BFF2101310840884202D02A48E0602D
:102060000DE024484068012189030840884203D0DC
:10207000A0684008E06002E0A0688008E0601D48B9
:10208000006B40210840402802D02048206102E037
:102090000120C00320611748006B10210840102860
:1020A00002D01548606101E0206860611148006B52
:1020B0008007800F002802D1A068A06119E00D48B8
:1020C000006B8007800F012802D12068A06110E01A
:1020D0000848006B8007800F022802D18003A061AE
:1020E00007E00448006B8007800F032801D10248F5
:1020F000A061FEBD0010024000127A000024F4002E
:1021000000093D0000000020809FD50012800000E3
:1021100010B502460021002300205111002902D1F0
:102120000C4C23680BE0012902D10A4C236A06E01B
:10213000022902D1074C636A01E0064C636BD106A9
:10214000C90E01248C401C40002C01D0012000E06D
:10215000002010BD00100240002806D00649496A40
:1021600001221143044A516205E00349496A4908C2
:102170004900014A516270470010024010B500BF8B
:1021800001210448FFF732F90028F9D00148FFF790
:102190005BF910BD0024014010B50248FFF759F962
:1021A00010BD00000024014010B50C480078C006A6
:1021B000C00F002810D10948007810218843103042
:1021C00006490870FFF782FC0121054800F008FB72
:1021D0000121034800F012FB10BD00007000002038
:1021E000004401401CB516480078C006C00F002806
:1021F00024D013480078102188431149087000202A
:1022000010494862486300210E4800F0F7FA0021A7
:102210000C4800F0E5FA4020009001216846017169
:1022200000218171032141710021C171694609209A
:10223000C006FFF71BF94020034908811CBD0000C0
:1022400070000020004401402000004810B50C48F8
:1022500000780007C00F002810D109480078082135
:102260008843083006490870FFF78CFC01210548B7
:1022700000F0B6FA0121034800F0C0FA10BD0000DA
:1022800070000020004801401CB515480078000788
:10229000C00F002823D01248007808218843104935
:1022A000087000200F494862486300210D4800F083
:1022B000A5FA00210B4800F093FA8020009001213C
:1022C000684601710321417100218171C171694624
:1022D0000920C006FFF7CAF88020034908811CBD09
:1022E0007000002000480140200000480022034BFD
:1022F0001A80034A1180034A10607047A80000202A
:10230000AA000020A400002070B505460E46002457
:1023100000BF0CE000BF0A48C06980210840802847
:10232000F9D1285D064920310881601CC4B2B4424D
:10233000F0DB01220349024800F0CDFB70BD000034
:10234000003801400601060010B5FFF759FA10BD2C
:102350000648008801214903884340180349088042
:1023600000200349087048708870704760020020A0
:10237000E10100200CB50020019000902B4800687E
:10238000012108432949086000BF2848006802214C
:10239000084000900198401C01900098002804D14A
:1023A0000521090301988842EFD1204800680221E5
:1023B0000840002802D00120009001E00020009099
:1023C0000098012831D11120194908601748406848
:1023D0001649486008464068486008464068012140
:1023E000C9040843114948600846006801210906EC
:1023F00008430E49086000BF0C48006802210840ED
:102400000028F9D0094840688008800007494860E2
:1024100008464068022108430449486000BF034859
:1024200040680C2108400828F9D10CBD001002407A
:1024300000200240042806D10649096904221143FC
:10244000044A116105E00349096904229143014AE4
:102450001161704700E000E010B51B4800680121E1
:102460000843194908600846406818490840164959
:102470004860084600681649084013490860084645
:1024800000680121890488430F49086008464068B4
:102490003F21090488430C4948600846C06A000986
:1024A0000001C8620846006BFF2154318843064989
:1024B00008630846406B400840004863002088607D
:1024C000FFF758FF10BD0000001002400CB8FFF8E5
:1024D000FFFFF6FEF0B50C4600210025068C0A4FE2
:1024E0003E400684018B058C074EF23E31401E05AE
:1024F000360C16433143044E093E3540012626432F
:10250000354301830584F0BDFEFF0000F8B50C469D
:102510000021002500260096068C0D4F3E400684C3
:10252000018B058C2605360C00960A4E31401E079D
:10253000360C31431606360C3143054E903E35407D
:102540001027009E3E43354301830584F8BD0000FB
:10255000EFFF0000FF0C0000F8B50C46002100253D
:1025600000260096068C0C4F3E400684818B058C1D
:102570002606360C0096084E0D3631401E05360CE8
:1025800016433143054E3540FF270137009E3E4339
:10259000354381830584F8BDFFFE0000FFF5000090
:1025A000F8B50C460021002500260096068C0D4F3C
:1025B0003E400684818B058C2607360C00960A4E19
:1025C00031401606360C31431E07360C3143074E98
:1025D000354001273F03009E3E43354381830584F8
:1025E000F8BD0000FFEF0000FF0C0000FF5F0000DF
:1025F00010B54748008A04210840042851D14448B6
:10260000008A88434249088242480078C007C00FC8
:1026100000281AD00846806B3F4909780A04511AED
:1026200040183E49086000203B490870384948621C
:1026300088633A4800683A49086006F039F9344836
:10264000008A400840003249088232480078C007BA
:10265000C00F002854D10920C006008A0821084074
:10266000C408002C4CD02B48007840084000401C87
:102670002849087000202649486288632649087066
:102680002348008A04218843214908820846008A99
:10269000400840000882012211461D4800F0F7F86A
:1026A0002EE01B48008AC007C00F002828D0194818
:1026B0000078C007C00F002822D017480078401CBF
:1026C0001549087008460078052819DB00200870B5
:1026D000144908700F480078400840000D49087000
:1026E0000B48008A04218843094908820846008A69
:1026F00040084000088200220121054800F0C7F888
:102700000348008A400840000149088210BD0000CB
:1027100000400140700000208D0000208800002053
:10272000CC010020150300200748008AC007C00F15
:10273000002808D00448008A400840000249088266
:10274000024800884863704700440140D4010020DB
:102750000748008AC007C00F002808D00448008A34
:1027600040084000024908820248008848637047D8
:10277000004801404C03002000B50D48008AC00706
:10278000C00F002812D00A48008A400840000849BB
:10279000088206F021F907480078401C05490870B6
:1027A00008460078C82801DB0020087000BD000042
:1027B0000010004078000020002904D00288802307
:1027C0001A43028003E00288014B1A4002807047DE
:1027D0007FFF0000CA4302827047CA4302827047EB
:1027E000002904D0028801231A43028003E00288F2
:1027F000014B1A4002807047FEFF0000002907D0FD
:102800004422125A0123DB031A4344231A5205E0DF
:102810004422125A53045B0C44221352704770B581
:1028200005460C46208800280AD12389A2886188A1
:102830002846FFF74FFEE188284600F07FF825E0A4
:10284000208804280AD12389A28861882846FFF7B6
:102850005DFEE188284600F07BF817E02088082814
:102860000AD12389A28861882846FFF775FEE1888E
:10287000284600F079F809E02389A2886188284673
:10288000FFF78EFEE188284600F078F870BD002A38
:1028900003D083890B43838102E083898B43838147
:1028A0007047000070B5002400220023058C1C4EE8
:1028B00035400584028C8388048B194D6F3D2C4074
:1028C000B51E2C400D882C43751E2A408D892A4345
:1028D0004D882A43134DA84208D0134DA84205D075
:1028E000124DA84202D0124DA84212D10C4DED1F3C
:1028F0002A40CD892A430A4DED1E2A408D882A435D
:10290000074DFF3D2B400B4D2B400D8A2B434D8A2D
:102910002B43838004838D684563028470BD00006F
:10292000FEFF0000002C0140004001400044014037
:1029300000480140FFFD000041627047028B034BDD
:102940001A400283028B0A4302837047F3FF0000A0
:10295000028B044B1A400283028B0B061B0C1A439A
:1029600002837047FFF30000828B034B1A4082837F
:10297000828B0A4382837047F3FF0000828B044BF3
:102980001A408283828B0B061B0C1A43828370478A
:10299000FFF3000000220288154B984206D0012365
:1029A0009B07984202D0134B984203D1124B1A4016
:1029B0004B881A43114B984203D0114B1A400B8994
:1029C0001A4302804B68C3620B880385084B984208
:1029D00008D00C4B984205D00B4B984202D00B4BC1
:1029E000984201D18B7A03860123838270470000CD
:1029F000002C0140000400408FFF00000010004048
:102A0000FFFC00000040014000440140004801403C
:102A100008B51F48C06920210840202824D11C483F
:102A200020308088C0B200901A49194800F03EF862
:102A30001948008819490988884215DD68460078D8
:102A400017490968087016480068401C1449086056
:102A500012480088401C114908800F4800880988E6
:102A6000884201D105F034FE0948C0694021084080
:102A700040280BD10648006A084305490862002235
:102A80000849034800F027F805F082FE08BD000061
:102A90000038014000030300AA000020A800002025
:102AA000A4000020060106000162704710B5002353
:102AB00000220B0C01249C402246026210BD00291A
:102AC00004D0026801231A43026003E0026852083E
:102AD000520002607047F8B50346002400260096B5
:102AE0000025002018460E04340ECEB200960127B1
:102AF000009EB7403D46022C01D1001D02E0032C90
:102B000000D10830002A03D006682E43066002E098
:102B10000668AE430660F8BDF0B589B004460D46C0
:102B20000027002008900026206840084000206010
:102B3000666803210903304688430646A8680643B1
:102B40006660266827480640E9686868084329697E
:102B5000084306432660A6680321090230468843DD
:102B6000064668690643A66001A8FFF719FA1E48E1
:102B7000844202D10798089001E0039808902068E9
:102B80000121C903084000280CD02968089A500088
:102B9000FDF753FB07462968089A5000FDF74DFBE7
:102BA0000E4609E029680898FDF747FB07462968A3
:102BB0000898FDF742FB0E4628684008B04200D84E
:102BC0007F1C20680121C9030840002806D038076F
:102BD000460F38460549084030430746A78109B0EB
:102BE000F0BD0000F3E9FFFF00380140F0FF0000F6
:102BF00030B47446641E2578641CAB4204D3635D14
:102C00005B00E31830BC18471D46F8E70146002278
:102C10000020CAB210467047014600220020FF2360
:102C20001B020B401A46101270470000F1B590B01D
:102C300000200E900D900C901098FEF7FFF90546BD
:102C400028490BF0D7FA04468921C905FEF702F995
:102C50000D9025480D990BF051FB0190FEF7D0F82F
:102C600004460122D207214BFDF7A6FF06460122AA
:102C700092071F4BFDF764FD0391029009F01EFEC1
:102C8000072252071B4B05910490FDF741FD0022DE
:102C9000194B07910690FDF78FFF0122D207174BC2
:102CA00009910890FDF764FD0B910A90FDF776FB02
:102CB0000C9013490C980BF0F5FA02D211480E90C3
:102CC0000CE000210C980BF06BFA02D200200E9061
:102CD00004E00C98FEF76EF980B20E900E9811B0D9
:102CE000F0BD00000000A0404260653D7571CB3F23
:102CF0005AB5863FF0F4BABF000059407571BB3F2A
:102D000000FF7F47FFFF0000F0B585B004460025B7
:102D100000260027002004902046FEF78FF91E4968
:102D20000390FEF797F8064631461C480BF062FA0E
:102D3000314602901A480BF05DFA314600900BF0D4
:102D400059FA019002990BF0E5F9164903900BF03E
:102D5000E1F907468921C90538460BF04BFA1249BB
:102D60000390FEF777F804908921C90504980BF0C9
:102D700099FA02D20125AD020AE0002104980BF075
:102D80000FFA01D2002503E00498FEF713F985B28B
:102D9000284605B0F0BD00000000C84287A7D73D17
:102DA000AC8B5B3D4260653D0000A040F8B5044639
:102DB000002500262046FEF741F907468121C90576
:102DC000FEF748F8064607493046FEF743F806493D
:102DD00000900BF00FFA0746FEF7ECF885B2284694
:102DE000F8BD0000F628124200002041074A0021E9
:102DF000515E074A0023D35E994200DA0020034A5D
:102E00000021515E024A118070470000E801002055
:102E1000C202002084480078A0280CDB8248007899
:102E2000B42808DA814800780007000F002802D093
:102E300001207F4908707C480078B42824DB7A4858
:102E40000078C82820DA794800780007000F0228A7
:102E500005D0764800780007000F042803D1012030
:102E60007349087010E0714800780007000F0028CF
:102E70000AD070490020085E6F4900228A5E9042A5
:102E800002DB00206A4908706C480078012822D1D2
:102E900065480078A02804D0B42809D0B72818D1F4
:102EA00007E063480078012801D16549087011E006
:102EB00000BF5F48007801280AD15E490020085E03
:102EC0005D4900228A5E904202DA01205C49087066
:102ED00000E000BF53E0554800780007000F0028CD
:102EE0004DD151480078A02817DB4F480078B4280E
:102EF00013DA51480021415E00290ADD4C48007870
:102F000000283CD101204F49087000204A49088020
:102F100035E000204B49087031E043480078B42880
:102F20002DDB41480078C82829DA42490020085E94
:102F3000414900228A5E90420FDA3D48007800281D
:102F40001DD101203F4908703A4800883A4908805D
:102F50000020085E3C49088011E0002039490870D3
:102F60003348007800280AD13749085E32490022E8
:102F70008A5E904203DC0020085E334908802A48BC
:102F80000078A32802D0B7284BD115E02F4800784D
:102F9000A0280BD10020284908802549087028491D
:102FA00008702549085E2849088004E0002020496F
:102FB00008702349087035E024480078B4281BD1F4
:102FC0001C490020085E1C4900228A5E904213DAE8
:102FD0001B48007801280CD1164800880880002082
:102FE000085E1949088000201149087014490870CA
:102FF00002E000200E49087014480078BA280AD16F
:103000000D490020085E104908800020084908701A
:103010000B49087004E00020094908700449087051
:1030200000E000BF00BF7047F40000205A020020FB
:10303000E102002068050020E801002000010020D6
:10304000E2020020F2010020F0010020F500002043
:10305000034B1870034B1970034B1A707047000034
:103060004B0200204C0200204D0200202048007836
:10307000792804D0A92803D0BD2833D101E000BFAE
:1030800000BF1C490020085E1B4900228A5E904256
:103090000FDD184800880988401A18490988401827
:1030A00000B21649088013490020085E12490880C2
:1030B00017E010490020085E0F4900228A5E904206
:1030C0000FDA084600880B490988401A0B4909881D
:1030D000081A00B20949088006490020085E06491E
:1030E000088003E000200549088000BF00BF70474A
:1030F000F4000020E8010020BC020020B8020020FB
:103100000B480078792804D0A92803D0BD2808D11D
:1031100001E000BF00BF07480088401C0549088047
:1031200003E000200349088000BF00BF7047000093
:10313000F4000020C002002010B5FFF76BFEFFF77F
:1031400095FFFFF7DDFF00F017FA00F033F800F00D
:1031500073F800F061F800F00BF800F0D5F800F01B
:103160002BF900F061F900F0EDF900F095FA10BDCF
:103170000E480078AA280FD006DC792809D07A28D2
:1031800008D0A9280BD106E0BD2806D0BE2806D15C
:1031900004E000BF00BF00BF00BF00BF03E000208D
:1031A0000349087000BF00BF70470000F400002012
:1031B000CA02002010B5144800787A2804D0AA2842
:1031C00003D0BE281AD101E000BF00BF0F4800782D
:1031D000002801D101F0C6F900200D4908800B48F4
:1031E0000078401C0949087008460078B12804DBC3
:1031F0000020087001200749087003E000200349FF
:10320000087000BF00BF10BDF4000020CC020020F9
:10321000C80200209C02002005480078052805DB34
:10322000002003490870012002490870704700001F
:10323000CA0200209502002010B52E480078A92867
:103240001ED00EDC7A281AD006DC6D2833D06E280A
:1032500032D0792845D111E0A3282ED0A42840D11E
:103260002CE0B8282CD004DCAA280AD0B72838D102
:1032700025E0BD2806D0BE2833D104E000BF00BF42
:1032800000BF00BF00BF1C480068401C1A4908600E
:1032900000201A4908801848006809F09DF916486E
:1032A00000681749884205D30020134908600120AF
:1032B000144908701BE000BF00BF00BF00BF00BF83
:1032C0000E480088401C0D49088008460088FF21F0
:1032D000BD31884204DB00200849088006490860A7
:1032E00005E00020044908600449088000BF00BFD1
:1032F00010BD0000F4000020D0020020D402002005
:10330000803801009402002026480078A52824D0A7
:103310000EDC7F281ED006DC152818D0642817D0B4
:103320007B2839D115E0812815D0A02834D113E0AD
:10333000BA2816D006DCAB2810D0AC280FD0B428A1
:103340002AD10DE0BF280DD0C02825D10BE000BF49
:1033500000BF00BF00BF00BF00BF00BF00BF00BF75
:1033600000BF00BF00BF10480088401C0E49088005
:103370000E4800888004C00F002801D0002008807B
:10338000094800880A49884205DB00200649088070
:1033900001200849087003E000200349088000BFAD
:1033A00000BF7047F4000020D60200206002002019
:1033B000570400009602002010B5164800786E28C9
:1033C00004D0A42803D0B8281AD101E000BF00BF60
:1033D00011480088401C1049088008460088FFF703
:1033E00005FD0D49088008460088FF21BD3188424F
:1033F00005DB00200849088001200849087007E023
:103400000020054908800649085E0649088000BF7B
:1034100000BF10BDF4000020D80200209702002059
:10342000E8010020C20200203C480078012808D1B1
:103430003B480078002804D03A490020085E3A4909
:1034400008803A4800786D2804D0A32839D0B728DE
:1034500059D137E031480078012803D13448007849
:103460006E2807D12F490020085E324900228A5E6B
:10347000904211DD2B490020085E2F4900228A5E10
:10348000904204DA0020085E2C49088004E02549B7
:103490000020085E2949088022490020085E25494D
:1034A00000228A5E90420BDA24490020085E001F49
:1034B0001C4900228A5E904202DB012020490870EC
:1034C00025E000BF17490020085E1A4900228A5EE5
:1034D000904217DA18490020085E001F11490022A7
:1034E0008A5E904202DB0120154908700E490020D7
:1034F000085E0C4900228A5E801A042802DB012043
:103500000F49087003E000200D49087000BF00BF9C
:1035100004490020085E0749088070470001002028
:10352000F6000020E8010020DA020020F40000206C
:10353000F5000020DC020020F0010020DE02002067
:103540009802002009480078692809D108480078C5
:103550008006C00F002802D001200649087003E051
:1035600000200449087000BF00BF7047F40000202D
:103570005F0200209A02002010B53C480078A42881
:1035800060D00CDC6E285BD004DC652856D06D283A
:1035900060D154E079280BD0A3285BD151E0A92851
:1035A00007D0B7284FD0B8284ED0BD2852D101E05F
:1035B00000BF00BF01F004F82D480078002811D1A9
:1035C0002C480088DE280CDB00202A4908800120D6
:1035D0002749087028480078402188434030264910
:1035E000087010BD25490020085E254900228A5E2A
:1035F00090420DDB0020214908801F4800784021BF
:10360000884340301C49087000201E49087014E0AF
:10361000184800881C49098888420EDB002015499B
:1036200008801548007840218843403012490870CE
:1036300014480078401C1349087014E000BF00BF14
:1036400000BF00BF00BF00BF0020094908700F493C
:10365000088008E00E490020085E0E49088000201E
:103660000449088000BF00BF00BFBAE7F400002093
:10367000C6020020C002002073020020B802002011
:10368000BA020020CA020020BE020020C8020020A8
:10369000E8010020BC0200200A480078792804D004
:1036A000A92803D0BD2806D101E000BF00BF01203A
:1036B0000549087003E000200349087000BF00BFFF
:1036C00070470000F4000020A502002000B502466B
:1036D000022A02D0032A20D10FE01448407889281A
:1036E00005D19120114948701149888504E09B203B
:1036F0000E4948700E49888510E00C4840789B2898
:1037000005D19120094948700949888504E089203C
:10371000064948700649888500E000BF00BF00F0F8
:103720000BF808200349087000BD00009801002034
:10373000BE060020A40100201C48808D89280AD0E4
:103740009B2812D11A4908801A4908801A49088012
:103750001A49088013E08920154908801549088016
:10376000154908801549088009E091201049088012
:1037700010490880104908801049088000BF00BF28
:103780000B4800880E490880094800880D490880C8
:10379000084800880C490880074800880B490880C1
:1037A000064800880A49088070470000BE060020CD
:1037B0004403002046030020480300204A03002061
:1037C00078020020120200207A0200207E020020EF
:1037D0007C02002010B500249548007801282AD1E9
:1037E000002093490870934800780007000F0028D4
:1037F00021D01020904908700A2090490870904804
:10380000047822468C4801788E480078FFF720FC27
:1038100006F00AFF8C480078802188438A490870A6
:1038200000208A4908708A49087007F031FA01209F
:103830008849087010BD8848007801281CD181484B
:1038400000780A2806D0662805D0762804D0772884
:103850000DD102E000BF00BF00BF182076490870FC
:1038600000207D49087001207A490870E2E70020B5
:103870007949087000BF00BF78480088C004C00FB5
:10388000002806D006206C49087001207149087094
:10389000D0E7724800880005C00F002806D0072036
:1038A0006549087001206B490870C3E76C480078CF
:1038B00001280AD105206049087000206849087075
:1038C0006449087001200870B4E7644800888004E7
:1038D000C00F00280AD063480078002806D10320D2
:1038E0005549087001205B490870A3E75B480088D0
:1038F000C00B002844D001204F4908705748008869
:103900000121C90388435549088057480078012898
:1039100032D14C48007879281BD00CDC6C2815D0AB
:1039200004DC652810D06A2824D10EE06D280ED062
:103930006E281FD10CE07A280CD07B280BD07F2872
:1039400011D0812816D107E000BF00BF00BF00BF23
:1039500000BF00BF00BF00BF6B203A490870FF20C6
:103960003549087007E07D2036490870FF2032494C
:10397000087000E000BF00BF01203649087059E719
:10398000364800884004C00F00281DD03749002069
:10399000085E374900228A5E904207DC2948007899
:1039A000642803DB27480078822802DB02202249B2
:1039B00008702A4800880121890388432749088024
:1039C00001202449087035E72A480078012816D1DB
:1039D0001C480078742802D0C2280BD100E000BF38
:1039E0000E2015490870002022490870012019494D
:1039F00008701FE700201F49087000BF00BF1E4865
:103A00000078012812D10F4800780B2809D10F2027
:103A10000949087000201849087001200D490870F4
:103A200008E700201449087000BF00BF00BF01E78D
:103A3000600100205A020020FC000020AD0100209F
:103A4000A5010020F40000204E02002022010020E9
:103A500023010020FE00002003010020600200205E
:103A600024010020A40200209B0200206805002001
:103A7000E8010020610100206301002010B500244E
:103A80007D48007801282AD17C480078A22814D0EB
:103A900008DC6A280DD06C280CD079280BD07A2845
:103AA00018D109E0B62809D0BD2808D0BE2811D108
:103AB00006E000BF00BF00BF00BF00BF00BF00BFE7
:103AC0000C206F49087000206B49087001206D4977
:103AD000087010BD00206849087000BF00BF6A4828
:103AE0000078012812D10820654908700020664935
:103AF00008706649088066480078102188431030B5
:103B00006349087001205F490870E2E76148007866
:103B1000012836D160480078C009002831D009203A
:103B200057490870554800786C280FD006DC672884
:103B300009D06A2808D06B280DD106E07D2806D070
:103B4000B62808D104E000BF00BF00BF00BF00BF1F
:103B500000F0ECFD00E000BF00BF50480078000717
:103B6000000F012806D14A48007810218843103000
:103B700047490870002047490870012041490870F2
:103B8000A7E747480078002803D146480078002876
:103B900019D014203A4908700B2043490870434853
:103BA000047822463648017834480078FFF750FA06
:103BB00000203B4908703B49087007F069F8012074
:103BC0003049087085E73A480078012819D1152056
:103BD0002B490870042034490870304800780407E5
:103BE000240F22462648017824480078FFF730FA4F
:103BF00000202F49087007F04BF801202149087078
:103C000067E72C480078012817D116201C49087056
:103C1000062025490870284804782246184801786B
:103C200016480078FFF714FA00202249087007F0C0
:103C30002FF80120134908704BE72048007801282D
:103C400017D116200E490870102017490870174820
:103C5000047822460A48017808480078FFF7F8F906
:103C600000201649087007F013F801200549087074
:103C70002FE700BF2DE70000FD000020F40000202A
:103C8000FC000020FE00002002010020260200208F
:103C9000720200202A010020620200205A02002045
:103CA0005701002058010020AD010020A50100208F
:103CB0005603002059010020400100202C01002063
:103CC0007047000010B50024F84800788006C00F47
:103CD000002824D0F548007820218843F349087053
:103CE000F3480078AA280FD006DC792809D07A2872
:103CF00008D0A92811D106E0BD2806D0BE280CD1D5
:103D000004E000BF00BF00BF00BF00BF0B20E949B7
:103D100008700120E849087010BD00BF00BFE348EB
:103D200000784006C00F002819D0E04800784021F4
:103D30008843DE490870DE480078792804D0A92835
:103D400003D0BD2809D101E000BF00BF0D20D94933
:103D500008700120D8490870DEE700BF00BFD748CF
:103D60000078012816D10020D4490870D048007886
:103D70007A2804D0AA2803D0BE2809D101E000BFC8
:103D800000BF0A20CB4908700120CB490870C3E767
:103D900000BF00BFC5480078C00900282AD0C3482A
:103DA000007880218843C1490870C1480078B02854
:103DB00014D008DC05280DD01C280CD068280BD0A6
:103DC0007E2815D109E0B12809D0C42808D0C5281B
:103DD0000ED106E000BF00BF00BF00BF00BF00BFA4
:103DE00000BF1920B34908700120B349087093E758
:103DF00000BF00BFB2480078012813D10020B049AD
:103E00000870AB480078172802D0AE2808D100E02F
:103E100000BF1220A74908700120A74908707BE75E
:103E200000BF00BFA7480078012816D10020A5498F
:103E300008709F4800787D2804D0AD2803D0C128A1
:103E400009D101E000BF00BF11209A49087001208C
:103E50009949087060E700BF00BF9B4800780128BF
:103E60001BD19348007881280CD004DC652807D04A
:103E7000802810D105E0822805D0C7280BD103E0A7
:103E800000BF00BF00BF00BF13208A490870012097
:103E90008949087040E700BF00BF8C4800780128BE
:103EA00021D100208949087081480078A4280FD0CA
:103EB00006DC6D2809D06E2808D0A32811D106E0B1
:103EC000B72806D0B8280CD104E000BF00BF00BF5F
:103ED00000BF00BF1720774908700120764908709D
:103EE0001AE700BF00BF71480078C006C00F002865
:103EF0001CD06E480078102188436C4908706C48CB
:103F00000078802806D0822805D0B42804D0C7289D
:103F10000AD102E000BF00BF00BF1A206549087047
:103F2000012065490870F7E600BF00BF68480078C7
:103F3000012821D10020664908705D480078AA2830
:103F40000FD006DC792809D07A2808D0A92811D109
:103F500006E0BD2806D0BE280CD104E000BF00BF9B
:103F600000BF00BF00BF1F20524908700120524906
:103F70000870D1E600BF00BF56480078012821D163
:103F80000020544908704A480078AA280FD006DC5F
:103F9000792809D07A2808D0A92811D106E0BD28AF
:103FA00006D0BE280CD104E000BF00BF00BF00BF98
:103FB00000BF20203F49087001203F490870ABE650
:103FC00000BF00BF44480078012827D100204249A3
:103FD000087037480078782814D008DC01280DD004
:103FE0000D280CD016280BD06B2815D109E0A1287C
:103FF00009D0B52808D0B9280ED106E000BF00BF0F
:1040000000BF00BF00BF00BF00BF1B2029490870D0
:104010000120294908707FE600BF00BF2F480078C3
:1040200001285FD100202D49087021480078A5287B
:1040300023D00EDC7F281DD006DC15282AD064286A
:1040400016D07B284CD114E0812814D0A02847D169
:1040500012E0BA2815D006DCAB280FD0AC280ED061
:10406000B4283DD10CE0BF280CD0C02838D10AE0DC
:1040700000BF00BF00BF00BF00BF00BF00BF00BF48
:1040800000BF00BF00BF1E200A49087001200A4976
:10409000087041E605F006F80446012C05D11E2003
:1040A0000449087001200449087035E673020020B5
:1040B000F4000020FC000020FE0000209C020020F4
:1040C00075020020620100209E020020990200205B
:1040D0009402002095020020930200209602002006
:1040E00000BF00BF25480078012816D100202349D1
:1040F0000870234800786D2804D0A32803D0B7287F
:1041000009D101E000BF00BF1C201E49087001203A
:104110001D49087000E600BF00BF1C480078012858
:1041200016D1002019490870154800786E2804D06F
:10413000A42803D0B82809D101E000BF00BF1D208A
:1041400010490870012010490870E5E500BF00BF64
:104150000F48007801280FD100200D490870084849
:104160000078692806D10420064908700120064914
:104170000870D1E500BF00BF00BFCDE59802002068
:10418000F4000020FC000020FE0000209702002028
:104190009A02002010B5294800786C2828D12848B8
:1041A0000078802188438030254908700120254906
:1041B0000870254800784021884340302249087023
:1041C00002F074FC04F058FE204800882049088062
:1041D00007F048FC1F48007800280CD105201E4934
:1041E000087000201D49087001201A49087002E07B
:1041F00000201B490880114800786C280DD119480F
:1042000000881949884205DA16480088401C15497B
:10421000088002E000201349088008480078A028A0
:1042200001DB07F0B7FF0D480078062805DB00200A
:104230000A49087005200849087010BDF5000020E3
:1042400052020020A002002074020020B4010020CD
:1042500020020020FF000020A4010020AC0100206B
:10426000BA0100206E020020FFFF000000B51048D8
:10427000007867280ED10F4800880F49884205DA78
:104280000C480088401C0B49088006E000200949C2
:10429000088002E000200949088005480078A0282D
:1042A00004DB07F077FF00200549088000BD00000F
:1042B000F50000206E020020FFFF0000BA01002080
:1042C000E80100208020074908700748007801288D
:1042D00003D164200549087002E081200349087079
:1042E00070470000F50000209E020020F40000202E
:1042F0001848007864281DD117480088753800B226
:10430000164900228A5E904214DC13490020085EA0
:10431000124900228A5E904204DA0F480088104950
:10432000088004E00D490020085E0D490880012046
:104330000C4908700B480078012803D16D200A4908
:10434000087002E065200849087082200149087061
:1043500070470000F500002068050020E8010020FB
:10436000F00100209E020020F4000020C720074931
:10437000087007480078012803D1B4200549087067
:1043800002E0BA200349087070470000F5000020E1
:104390009E020020F400002010B50E48007801288D
:1043A00014D10D480078762806D00B48007877287D
:1043B00002D000200949088007480078A02805DBC2
:1043C00007480088753800B206490880FFF74EFF9D
:1043D00010BD000000010020F5000020E8010020D1
:1043E00068050020F00100200948007801280DD15F
:1043F00008480078A52809D107480088801C00B229
:104400000649088004480088054908807047000074
:1044100000010020F500002068050020E8010020D0
:10442000F00100202A480078C006C00F00284DD0B7
:10443000284800780007000F012824DB2548007871
:104440000007000F04281EDC23490020085E1E38E8
:10445000224900228A5E904205DB1D480078102127
:1044600088431B4908701D480021415E1A4A0020FC
:10447000105E1E30814229DB1548007810218843E8
:104480001349087022E0134800780007000F002845
:104490001CD11349085EFD38104900228A5E904203
:1044A00005DB0B48007810218843094908700B4848
:1044B0000021415E0A4A0020105EFD30814205DB8A
:1044C00003480078102188430149087070470000B4
:1044D000720200205A020020F8000020E8010020AB
:1044E000FA00002005480021415E9B2905DA0020E2
:1044F000024908800120024908707047E801002045
:104500000201002000B514480078002802D11349A8
:10451000087019E01048007800280AD00F48007889
:10452000002806D000200C49087001200B490870B3
:104530000AE009480078002806D0084800780028DA
:1045400002D101200549087005480078012801D1F1
:1045500002F062FA00BD00002A0100202B010020B9
:104560000001002013480088DD2806DB26201249C0
:104570000880D020114908801BE00E48008886285A
:1045800006DB1C200C490880AD200C49088010E097
:1045900008480088452806DB122007490880AD201E
:1045A0000649088005E00B2003490880AD20034937
:1045B00008807047C8020020BA020020BE02002016
:1045C0000A4800880A490988884203DD07480088AC
:1045D0000749088007480078002806D10448008869
:1045E000632802DD632002490880704742010020F1
:1045F000C8020020C6020020084800880849088038
:104600000848008808490880084800880849088048
:1046100008480088084908807047000044030020CB
:1046200078020020460300207A0200204803002080
:104630007E0200204A0300207C02002010B5324890
:104640000078002850D131480078672802D06B28C4
:1046500048D100E000BF2E490020085E2D4900220D
:104660008A5E90423DDD08460021415E322907DD29
:1046700029480078082188430830274908700DE050
:1046800024490020085E3121C943884206DA2248C5
:1046900000781021884310301F4908701C49002001
:1046A000085E1E49081A1B4900228A5E5142884250
:1046B0000BDD1748008817490988401A00B21449D1
:1046C000088008460088164908801149098888B280
:1046D000FF218731FBF7BBFD124908700120124909
:1046E000087000E000BF00BF0A480021415E9B291E
:1046F00009DC05480078012802D10020054908801E
:1047000001200949087010BD9F020020F40000201C
:1047100068050020E801002074020020D91600007E
:10472000F0010020F70100200201002010B51A4816
:1047300000780007000F01280BD1092017490870E5
:10474000174802781748017817480078FEF780FC70
:1047500020E0114800780007000F02281AD1134802
:104760000078012803D111200C4908700AE0104894
:104770000078012803D112200849087002E00120C6
:10478000064908700648027806480178064800780D
:10479000FEF75EFC10BD00005A020020AD010020B3
:1047A000A3010020FC000020F4000020560100209E
:1047B00054010020F8B5002600240027002500BF82
:1047C00000BF00BF4B48007800F022F9494800784C
:1047D0000938494908700321072000F049FD47497D
:1047E000088044480078092804D00A2814D00B28EF
:1047F00036D123E040480078C00041494018414983
:1048000009784900475A3F48007800F041F93D498E
:1048100008700846067829E037480078C000384913
:104820004018394909784900475A3748007800F05C
:104830002FF9354908700846067817E02E480078A9
:10484000C0002F494018314909784900475A2F487C
:10485000007800F01DF92D4908700846067805E03B
:1048600009202449087007F05FFA00BF00BF2848FC
:104870000078002804D121480188384600F022FA47
:104880001E4800881C490978C9001D4A8918720011
:104890008852002409E018480078C00018494018E0
:1048A0006100405A4519601CC4B2032CF3DDA80313
:1048B000000C114909784900164A50520121164846
:1048C0000D4A127881540B480078092809D1134801
:1048D00000780821884308301049087000F030F84B
:1048E00005E0044800780B2801D103F01DFD00F01D
:1048F00017F8F8BDBE010020BF0100204C010020C8
:10490000F60300204E0100204F010020500100203E
:1049100051010020420100204801002050020020E7
:1049200004480078012804D100200349034A127882
:10493000885470475101002048010020BF01002029
:1049400010B503F06FFE10BD10B500F009F8FFF7C9
:1049500031FF02F005FD09F06FFA09F0B1FA10BD60
:1049600010B526480078002805D10B20234908708F
:10497000012023490870234800780007000F002811
:1049800038D101F0BBFE00280BD001200921C90657
:1049900088611A4800780A282FD009201749087022
:1049A0002BE00A201549087017480078DF280ADB39
:1049B00001200921C90688610020134908700920D7
:1049C0000E49087019E010480078D32809DB0E481A
:1049D0000078401C0C49087001200921C906886133
:1049E0000BE009480078401C07490870012007497E
:1049F000088102E000200449087010BDBE010020BB
:104A0000510100205A0200203C03002020000048F1
:104A100010B504461B4800780009012809D1092077
:104A200007F09CF9092018490870072017490870F9
:104A300026E0092C04D00A2C0CD00B2C1ED113E03C
:104A40000A2007F08BF90A200F49087007200F4948
:104A5000087014E00B2007F081F90B200A49087058
:104A600007200A4908700AE0092007F077F90920B1
:104A70000549087007200549087000E000BF00BF25
:104A800010BD00005A020020BE010020520100208B
:104A9000411CC8B2042803DB0021024A1170002027
:104AA000704700005101002010B54F480078000702
:104AB000000F012827D14D4800784D4909788842D8
:104AC00009DC4C480078012805D04B4800780007E5
:104AD000C00F00283AD045480078012804D1474843
:104AE00000884749088003E0464800884449088018
:104AF00003F008FD06F036FB3F48007808218843A4
:104B00003D49087022E040480078404909788842D1
:104B100009D138480078012805D0374800780007C7
:104B2000C00F002812D0394800780A21484338497C
:104B3000401800893249088003F0E4FC06F038FA96
:104B40002D480078082188432B49087026480078B2
:104B50000007000F012822D0022842D128480088EF
:104B60002C49081A2C490988884204DA0020C043DD
:104B70002A49088006E02248008827490988401809
:104B80002649088026480088062803DC2548008836
:104B900023490880224800882349088022E01848D9
:104BA00000881C49081A1C490988884204DA002038
:104BB000C0431A49088006E0114800881649098850
:104BC00040181649088019480088062804DC174850
:104BD0000088383015490880144800881249088038
:104BE00000E000BF00BF10BD5A020020FA01002003
:104BF000FB0100200001002072020020B201002011
:104C00000802002078020020F9010020F6010020AF
:104C100074050020FFFF000006020020B6010020FE
:104C2000B801002012020020C0010020BC010020B9
:104C3000064908700021064A1170064A1170064A9A
:104C40001180064A1170064A11707047E402002074
:104C5000E5020020E6020020E80200203B020020DE
:104C60004002002010B5134800881349884204DA36
:104C700010480088401C0F49088010480078002820
:104C800004D001280FD0022810D100E000BF0C484A
:104C90000078052802DC06F0A5FE01E008F006FC1D
:104CA00008F040FC03E003F093F800E000BF00BF11
:104CB00010BD0000E8020020FFFF0000E402002019
:104CC000E502002070B505460C46134804801348E1
:104CD00005801348007809280ED1002D09D111480C
:104CE0000078400840000F4908700A2C13DD0A24A0
:104CF00011E002F0EBFA0EE06100A94204DBE10FE3
:104D000009194910A94206DD06480078400840000C
:104D1000401C0449087070BD360100203801002095
:104D2000BE0100204F02002010B530480078C007B7
:104D3000C00F002803D12E4800881B2830DC2D48E6
:104D40000088A52828DB2C480078FF2804DA2A48A8
:104D50000078401C2849087027480078432822DB47
:104D600000202549087005F05FFC24480078802168
:104D700088432249087000202149087021490870A1
:104D80000120214908701B490878C117890F0918AB
:104D900089101E4A117006E000201749087002E0D1
:104DA0000020154908701A480078C82812DB05F061
:104DB0003BFC12480078802188431049087000208D
:104DC0000F4908700F49087001201249087000202F
:104DD0000F490870104800780007000F002803D121
:104DE000094908700A49087010BD000062020020DD
:104DF000D4010020420100200F0200204E020020BA
:104E000022010020230100202C010020A501002008
:104E10005A010020560300205A02002010B5002439
:104E200016480078002828D015480088154988427F
:104E300023DC15480078002807D1012012490870AA
:104E40001249085F1249088017E011480021415EAD
:104E5000032000F025FB0446012C0ED106F096FD40
:104E60000020064908700A49088007490870094966
:104E70000870094908800949087010BD4E030020D8
:104E8000FC020020910400005A030020E8010020E9
:104E9000580300205D030020500300204F03002032
:104EA0000C480078802188430A4908700846007839
:104EB00008218843083007490870084600782021F7
:104EC0008843044908700846007810218843014946
:104ED000087070476202002070B50024002500268B
:104EE000002003F049F90546062003F045F906467F
:104EF0000F480088A84214DB0E480078002806D12D
:104F000001200C4908700C49085F0C490880F0B278
:104F10000A4A0021515E00F0C3FA044608480470B2
:104F200004E00020054908800249087070BD0000B7
:104F3000FC0200204F030020E80100205003002065
:104F40004E03002010B522480078224908702248FC
:104F5000007810218843204909784906C90F0901C2
:104F60001022114008431C4908701C4800780007B3
:104F7000000F01281ED11A480078002804D01948D3
:104F800000881949088010E018480078A02808DB3C
:104F900016480078C82804DA1248008812490880A8
:104FA00003E0104800881049088003F0ABFA06F0CF
:104FB000D9F80CE00A4800780A2148430C49401807
:104FC00000890949088003F09DFA05F0F1FF10BD42
:104FD0000202002004020020550200205A02002094
:104FE000F6010020B201002008020020F400002099
:104FF0007405002000BF0C490988122902DA122129
:10500000094A118000BF08490988084A5143890BA1
:10501000491EC8B200BF00BF192801DB192002E0F9
:10502000082800DA08207047B40100208338000007
:1050300070B5002500240020754908707549087076
:1050400075480078012802D174487549088000200D
:105050007449087070480078012817D172480078A8
:10506000672803D0704800786B280FD16F4800780C
:1050700040006F49085A6F490988884206DA6D482E
:1050800000886A4909784900694A50526A4800789C
:105090000007000F69490978884202D0002065495D
:1050A00008806748007800282BD15B4800780128E9
:1050B00027D15D4800786C2823D1624800786428A5
:1050C0001FD0002415E0002508E000210A206043DD
:1050D0005D4A80186A008152681CC5B2032DF4DD58
:1050E0005A4801880A206043574A80180181601C91
:1050F000C4B2574800788442E5DD544800885549D9
:105100000880504800780A2801DA02F051F94D4829
:1051100000780A2805DB4B480078142801DA02F0F1
:1051200003FA48480078142805DB464800786428CC
:1051300001DA02F0A9FB43480078642805DB414806
:1051400000786E2801DA02F087F93E4800786E2870
:1051500005DB3C480078782801DA02F01DFA39486E
:105160000078782805DB37480078A02801DA02F0BB
:1051700041FA34480078A02805DB32480078AA2894
:1051800001DA02F073FA2F480078AA2805DB2D48CF
:105190000078B42801DA02F0BDFA2A480078B42871
:1051A00005DB28480078BE2801DA02F0E3FA25483A
:1051B0000078BE2805DB23480078FF2801DC02F0D8
:1051C0001BFB1D4800780007000F00280FD1224963
:1051D0000880194800780007000F184909788842AC
:1051E00015D01E490020085E1D4908800FE01248B6
:1051F00000780007000F11490978884204D0174948
:105200000020085E1449088000201549088070BD00
:10521000210100202A02002000010020204E000071
:10522000460200209D020020F5000020F60100202B
:1052300048050020BA0100205A020020F600002094
:10524000A0020020F40000207405002020020020AD
:10525000F701002008020020F8000020E8010020EB
:10526000FA0000200520014908707047E50200207F
:10527000F8B505460F4600240026002000901D4981
:105280000870FCF77BFF00BF1A4800781A490978BC
:105290008842F9DB002017490870002622E0681ECA
:1052A000C4B21BE0601E40001449085A6100134A52
:1052B000515A884210DA60001146085A0090601E68
:1052C0004000085A8004800C61005052009881040C
:1052D000890C601E40001152601EC4B2B442E1DC71
:1052E000701CC6B2681EC0B2B042D8DC7800034958
:1052F000085AF8BD35010020520100201205002097
:1053000010B5002400BF0548046821460448FAF798
:1053100094FF044603490C8010BD000004030020E4
:10532000E0707200FC02002001200A4908700A485F
:105330000078012803D102200749087002E001200B
:1053400005490870082005490870FF2004490870C5
:10535000704700003B02002098010020A4010020BB
:10536000EA0200200E4800687D210901884209D226
:105370000C480078FF2812DA0A480078401C0949D6
:1053800008700CE007480078052805DD054800781E
:10539000401F0449087002E000200249087070476D
:1053A000040300205A01002017480078002803D188
:1053B00016480078002825D01548008801210903E7
:1053C000884313490880084600880121C9028843A0
:1053D0000F49088000200F4908700D4800880121FE
:1053E000C90388430A4908800846008801218903C7
:1053F00088430749088008460088012149038843FB
:105400000349088070470000420300204303002046
:10541000600200202401002014480088C00B0028EE
:105420001BD1124800884004C00F002815D10F4836
:1054300000888004C00F00280FD10C480088C004E9
:10544000C00F002809D1094800880005C00F0028B6
:1054500003D107480078012803D1012005490870CD
:1054600002E000200349087070470000600200203D
:105470002401002029010020074800780A2805DDC2
:10548000012006490870002003490870024800788E
:10549000401C0149087070471001002011010020D4
:1054A00030B502460020144B1B781B071B0F012B45
:1054B00005D0114B1B781B071B0F032B07D18B1A31
:1054C0000E4C0025655FAB4214DB012012E00A4B55
:1054D0001B781B071B0F022B05D0074B1B781B07E4
:1054E0001B0F042B06D18B18044C0025655FAB42C3
:1054F00000DC012030BD00005A020020E80100203D
:1055000015480078012826D1144800880121090394
:10551000884312490880084600880121C90288434F
:105520000E49088000200E4908700C4800880121AF
:10553000C903884309490880084600880121890376
:1055400088430649088008460088012149038843AA
:10555000401802490880704756030020600200206E
:105560002401002010B50020002100BF05E0134AEF
:10557000125C5218D1B2421C10B21328F7DB0F4A4A
:10558000D27C8A4218D00E4A127840239A43403285
:105590000B4B1A70002006E00A4A128843000A4C9E
:1055A000E252421C10B20F28F6DD084A1288064B60
:1055B0001A84044A12889A8410BD000086040020D0
:1055C0007202002012020020BE0600207A02002093
:1055D00010B537480078012867D136480078772819
:1055E00052D020DC172846D00EDC0C2840D006DC38
:1055F000012837D0022836D0042854D134E00D28B1
:1056000037D016284FD135E074283AD006DC182858
:1056100032D0672833D06B2845D131E0752831D09E
:10562000762840D12FE0B52835D00EDCA6282FD023
:1056300006DC782829D07D2828D0A12833D126E07F
:10564000AD2826D0AE282ED124E0C22826D004DCF6
:10565000B92821D0C12826D11FE0C3281FD0C628D1
:1056600021D11DE000BF00BF0020134908801BE0CE
:1056700000BF00BF00BF00BFFEF734FF14E000BF53
:1056800000BF00BF00BF00BF00BF00BF00BF00BF22
:1056900000BF00BF00BF00BF00BF00BF00BF00BF12
:1056A000FEF7CCFF00E000BF00BF00F03BFA10BDEA
:1056B0002A010020F4000020E80100200020074912
:1056C0000978012906D106490978FF2900D100E0AF
:1056D000012001E0002000BF00BF7047E40200206D
:1056E000E60200200A480078C00900280ED00948C8
:1056F00000788007C00F002808D1074800881428C8
:1057000004DD064800886D300449088070470000B9
:10571000620200204E020020D2010020D4010020AD
:1057200038B5002100914549012002F0A5FD44490A
:10573000022002F0A1FD4349032002F09DFD4249F1
:10574000042002F099FD0220404908701120887061
:105750009820C870394800780871384800880012CD
:105760004871364880788871344840880012C87182
:1057700002F070FD0546FDF759FA04460A21FAF7D2
:1057800066FD324908722F490888FDF70FFB2F4943
:1057900048722C490888FDF709FB00122B498872D2
:1057A0002748428801786B460B2006F07FFD24488D
:1057B000C28801796B460E2006F078FD20484289A8
:1057C000017A6B46112006F071FD1D48C289017BEC
:1057D0006B46142006F06AFD1948428A017C6B462C
:1057E000172006F063FD1648C28A017D6B461A2019
:1057F00006F05CFD1248428B017E6B461D2006F0D0
:1058000055FD0F48C28B017F6B46202006F04EFDF0
:105810000B48428C203001786B46232006F046FD71
:105820000748C28C203001796B46262006F03EFDE9
:10583000684600780B300549487038BD9203002057
:10584000A6030020DE000020E40000206803002002
:10585000002009490978094A505C002808D1084904
:105860000978012904D107490978074A117001E034
:105870000549087070470000130100205CE500082E
:10588000DC000020CD000020CA00002010B5044636
:1058900014480078012802D0022820D111E01248D3
:1058A0000078012809D100200F49087002200D4915
:1058B000087000200D49088002E0204608F0DAF95F
:1058C0000EE00A480088401C80B208490880FF2189
:1058D0004D31884202D300200249087000E000BF29
:1058E00000BF10BDDC000020D7000020DA0000203F
:1058F00011480078002805D010480078012801D10F
:105900000D4948700C484078012810D10C48008897
:10591000FF214D31884204D30020074908704870A8
:1059200008E007480088401C0549088002E0002084
:10593000034908807047000013010020290100205E
:105940006C00002070B50024002502F061F800BF53
:1059500006E00B48005DFF2800D00125601CC4B2A2
:10596000132CF6DB002406E00648005DFF2800D07B
:105970000125601CC4B2052CF6DB284670BD000072
:10598000860400209201002010B508F0F3FA0D48BB
:105990000078002808D102F03BF80B490878FFF79F
:1059A00047F901200749087008480078012807D105
:1059B000FCF7CEFC06480078002801D106F0B4F9C7
:1059C00010BD000079010020980100207001002026
:1059D0009C01002010B546480078012810D14548A8
:1059E0000088454908804348008844490880414868
:1059F0000088434908803F4800884249088047E0C2
:105A00003B480078022810D13F4800883A49088076
:105A10003D480088394908803B480088384908805B
:105A2000394800883749088032E038480078000754
:105A3000000F022804D12F480088324908800EE068
:105A4000324800780007000F012804D13048008850
:105A50002C49088003E02C4800882A490880FFF779
:105A600023F806F031FD294800780007000F0128CF
:105A700004D1274800882149088009E0234800789C
:105A80000007000F022803D11A4800881B4908802C
:105A9000204800780007C00F002828D01D48007853
:105AA000082188431B4908700F201B49087007F024
:105AB00087FC1A48008814490988884202DD02F0F0
:105AC00067FD14E0154800880C490988884202DD0A
:105AD00002F05EFD0BE01148008809490988884200
